:020000040000FA
:040000008A11002C35
:08000800FD000308FE000A08D8
:10001000FF00831603138C1817280C1812288B184E
:100020001C282028831203130C104D232028831230
:1000300003138C10C52320288B107C1C8A2B772B54
:0E0040007F088A007E088300FD0E7D0E0900F9
:02004E0001347B
:0E005000003407340434103401345F340034BB
:02005E00F201AD
:10006000F301F401F50108008317831203176F30C1
:1000700084007A10911B7A1403107A180314800DEF
:100080007A1003187A1484030408EF3E03183C28FE
:100090001D301106031D672855301206031D672801
:1000A00059301306031D672855301406031D6728B1
:1000B00055301506031D672860301606F039031DFC
:1000C00067281C301D06FC39031D67287228F00BB9
:1000D00037280830F000F10A7108A13E031C3728C8
:1000E00003100800031408002F2083120317961929
:1000F0007A287E281619F52903148128161DF5295A
:100100000310F50DF40DF30DF20D961888288C28C8
:100110001618F52903148F28161CF5290310F50D60
:10012000F40DF30DF20D971B96289A28171BF5294D
:1001300003149D28171FF5290310F50DF40DF30D79
:10014000F20D971AA428A828171AF5290314AB282A
:10015000171EF5290310F50DF40DF30DF20D971987
:10016000B228B6281719F5290314B928171DF5293F
:100170000310F50DF40DF30DF20D9718C028C428E7
:100180001718F5290314C728171CF5290310F50DB6
:10019000F40DF30DF20D981BCE28D228181BF5296B
:1001A0000314D528181FF5290310F50DF40DF30DD0
:1001B000F20D981ADC28E028181AF5290314E32810
:1001C000181EF5290310F50DF40DF30DF20D981915
:1001D000EA28EE281819F5290314F128181DF52925
:1001E0000310F50DF40DF30DF20D9818F828FC2806
:1001F0001818F5290314FF28181CF5290310F50D0C
:10020000F40DF30DF20D991B06290A29191BF52986
:1002100003140D29191FF5290310F50DF40DF30D25
:10022000F20D991A14291829191AF52903141B29F2
:10023000191EF5290310F50DF40DF30DF20D9919A2
:10024000222926291919F52903142929191DF52907
:100250000310F50DF40DF30DF20D99183029342922
:100260001918F52903143729191CF5290310F50D60
:10027000F40DF30DF20D9A1B3E2942291A1BF529A4
:10028000031445291A1FF5290310F50DF40DF30D7C
:10029000F20D9A1A4C2950291A1AF52903145329D8
:1002A0001A1EF5290310F50DF40DF30DF20D9A1930
:1002B0005A295E291A19F529031461291A1DF529ED
:1002C0000310F50DF40DF30DF20D9A1868296C2941
:1002D0001A18F52903146F291A1CF5290310F50DB6
:1002E000F40DF30DF20D9B1B76297A291B1BF529C2
:1002F00003147D291B1FF5290310F50DF40DF30DD3
:10030000F20D9B1A842988291B1AF52903148B29BD
:100310001B1EF5290310F50DF40DF30DF20D9B19BD
:10032000922996291B19F529031499291B1DF529D2
:100330000310F50DF40DF30DF20D9B18A029A4295F
:100340001B18F5290314A7291B1CF5290310F50D0B
:10035000F40DF30DF20D9C1BAE29B2291C1BF529DF
:100360000314B5291C1FF5290310F50DF40DF30D29
:10037000F20D9C1ABC29C0291C1AF5290314C329A3
:100380001C1EF5290310F50DF40DF30DF20D9C194B
:10039000CA29CE291C19F5290314D1291C1DF529B8
:1003A0000310F50DF40DF30DF20D9C18D829DC297E
:1003B0001C18F5290314DF291C1CF5290310F50D61
:1003C000F40DF30DF20DF20CF30CF40CF50C031814
:1003D000F2147208FB007308F2007408F300750849
:1003E000F4007B08F5000314080003100800FB016B
:1003F000F21BFB0A721BFB0AF21AFB0A721AFB0AB7
:10040000F219FB0A7219FB0AF218FB0A7218FB0AAE
:10041000F31BFB0A731BFB0AF31AFB0A731AFB0A92
:100420007B18152A7518382A172A751C382AFB01DB
:10043000F319FB0A7319FB0AF318FB0A7318FB0A7A
:10044000F41BFB0A741BFB0AF41AFB0A741AFB0A5E
:10045000F419FB0A7419FB0AF418FB0A7418FB0A56
:100460007B1C352AF518382A3A2AF51C382A3A2AEC
:1004700003100800031408002F200830F000F101D9
:10048000FA01FB013420031C4C2A7420031C422A6D
:10049000F721031C422A4F2A2F20031008000314BF
:0204A000080052
:0E04A200831603178C18532A831603178C1326
:1004B0000C158B1355308D00AA308D008C148B17C2
:1004C0000C11831603178C18632A08008316031770
:1004D0008C130C1408008312031701308D008C015B
:1004E0005122831203170D08FC3C8D0A031D702A4C
:1004F0008312031700308D0001308C005122080058
:100500008312031700308D006622831203170C0834
:10051000FA0001308C060319C22A01308D006622D0
:10052000831203170C08831203137206031DB82AE3
:10053000831203178D0A6622831203170C08831295
:10054000031373060319A82A831203178D03B82A0D
:10055000831203178D0A6622831203170C08831275
:10056000031374060319C42A831203178D038D0322
:10057000831203177A080D060319C22A8D0A8D0A01
:100580008D0A8F2A03100800831203178D038D0331
:100590000314080080220318FC2A8312031700307A
:1005A0008D006622831203170C088D00831203133B
:1005B0007208831203178C005122831203137308ED
:1005C000831203178D0A8C005122831203137408BF
:1005D000831203178D0A8C00512283120317FC30FB
:1005E0000D06031DF62A01308D00F72A8D0A0D082D
:1005F0008C0000308D00512208008022031C1F2B2C
:1006000083120317FA300D060319142B8D0A8D0A75
:100610008D0A6622831203178D038D038D035122E9
:10062000831203178D0A002B8312031700308D00ED
:100630006622831203178C038C038C03512208005B
:10064000572383160313061485130513051085110C
:100650009B010B160B178B170800831203138513CE
:10066000051305108511080083120313851705175C
:100670000510851108000800080008000800831212
:10068000031385159F30FA001030FB00FA0B492B3D
:10069000FB0B462B4B2B85110800F90A32307906EB
:1006A000031D080057238312031310100800F901DB
:1006B000FF30F600F701F80008008312031310144E
:1006C00076087206031D6D2B77087306031D6D2BCC
:1006D00078087406031D6D2B752B7208F6007308DD
:1006E000F7007408F80003100800031408007C10D9
:1006F0002D23D8233C22031C772B5D230318772B53
:1007000080220318842B872B3F233B23772B3C230A
:10071000772B08007C143423D8233C22031C8A2B1B
:100720005D230318772B8022031C972B9A2BCA2258
:0C0730003D238A2BFD223E238A2B08006B
:04073C00831603130A
:100740009C1BA02B9C1FA22B8312031381018316D9
:1007500003139C1BA92B9C1FAB2B831203130108B3
:100760006D3E0318B62B03100000B72B03140800CE
:100770009E230318B82B9E23031CBB2B00004F3075
:10078000FA00FA0BC12BC42B0800F023F8239E2398
:10079000800D900BD72B840A0408903E0318D32BAE
:1007A00008309000D72B831603138C103C220800CE
:1007B0008316031305309C008B1281128115831759
:1007C00011308400B82383160313C63092000B1730
:1007D0008B178C148312031305309200EE2B080044
:1007E0008316031305109B018312031305140800DD
:1007F0008316031305109B018312031305100800D1
:0E080000831603137C308F0020237723002CF7
:02080E000834AC
:100810000034003400340034003400340034003438
:100820000034003400340034003400340034003428
:100830000034003400340034003400340034003418
:100840000034003400340034003400340034003408
:1008500000340034003400340034003400340034F8
:1008600000340034003400340034003400340034E8
:1008700000340034003400340034003400340034D8
:1008800000340034003400340034003400340034C8
:1008900000340034003400340034003400340034B8
:1008A00000340034003400340034003400340034A8
:1008B0000034003400340034003400340034003498
:0C08C000003400340034003400340034F4
:02400E00383741
:02401000FC3F73
:024200000100BB
:00000001FF
