:020000040000FA
:040000008A114C2AEB
:08000800F7000308F8000A08E4
:10001000F9008C180C280E2812228C1079088A00FE
:0A00200078088300F70E770E090040
:06002A00013400345234E1
:0A0030000234103401345F34003450
:06003A00F301F401F501E1
:10004000F601F701F801F90108000830F000F101AC
:10005000F2018317831203176F3084007210911B13
:100060007214031072180314800D721003187214A6
:1000700084030408EF3E031831281D301106031DC8
:100080005C2855301206031D5C2859301306031DE9
:100090005C2855301406031D5C2855301506031DD9
:1000A0005C2860301606F039031D5C281C301D06E4
:1000B000FC39031D5C286728F00B2C280830F00061
:1000C000F10A7108A13E031C2C2803100800031438
:1000D00008001D208312031796196F28732816191C
:1000E000DA2903147628161DDA290310F60DF50D0A
:1000F000F40DF30D96187D2881281618DA290314BB
:100100008428161CDA290310F60DF50DF40DF30DF5
:10011000971B8B288F28171BDA2903149228171F87
:10012000DA290310F60DF50DF40DF30D971A992841
:100130009D28171ADA290314A028171EDA2903109C
:10014000F60DF50DF40DF30D9719A728AB28171927
:10015000DA290314AE28171DDA290310F60DF50D60
:10016000F40DF30D9718B528B9281718DA290314D8
:10017000BC28171CDA290310F60DF50DF40DF30D4C
:10018000981BC328C728181BDA290314CA28181F6C
:10019000DA290310F60DF50DF40DF30D981AD12898
:1001A000D528181ADA290314D828181EDA290310BA
:1001B000F60DF50DF40DF30D9819DF28E328181945
:1001C000DA290314E628181DDA290310F60DF50DB7
:1001D000F40DF30D9818ED28F1281818DA290314F6
:1001E000F428181CDA290310F60DF50DF40DF30DA3
:1001F000991BFB28FF28191BDA2903140229191F50
:10020000DA290310F60DF50DF40DF30D991A0929ED
:100210000D29191ADA2903141029191EDA290310D5
:10022000F60DF50DF40DF30D991917291B29191960
:10023000DA2903141E29191DDA290310F60DF50D0C
:10024000F40DF30D9918252929291918DA29031411
:100250002C29191CDA290310F60DF50DF40DF30DF8
:100260009A1B332937291A1BDA2903143A291A1F32
:10027000DA290310F60DF50DF40DF30D9A1A412944
:1002800045291A1ADA29031448291A1EDA290310F3
:10029000F60DF50DF40DF30D9A194F2953291A197E
:1002A000DA29031456291A1DDA290310F60DF50D63
:1002B000F40DF30D9A185D2961291A18DA2903142F
:1002C00064291A1CDA290310F60DF50DF40DF30D4F
:1002D0009B1B6B296F291B1BDA29031472291B1F17
:1002E000DA290310F60DF50DF40DF30D9B1A79299B
:1002F0007D291B1ADA29031480291B1EDA29031011
:10030000F60DF50DF40DF30D9B1987298B291B199B
:10031000DA2903148E291B1DDA290310F60DF50DB9
:10032000F40DF30D9B18952999291B18DA2903144C
:100330009C291B1CDA290310F60DF50DF40DF30DA5
:100340009C1BA329A7291C1BDA290314AA291C1FFB
:10035000DA290310F60DF50DF40DF30D9C1AB129F1
:10036000B5291C1ADA290314B8291C1EDA2903102E
:10037000F60DF50DF40DF30D9C19BF29C3291C19B9
:10038000DA290314C6291C1DDA290310F60DF50D10
:10039000F40DF30D9C18CD29D1291C18DA2903146A
:1003A000D4291C1CDA290310F60DF50DF40DF30DFC
:1003B0000314080003100800000008001D20252079
:1003C000031CE8296920031CE829DC21031CE82917
:0603D0001D2008000800DA
:0A03D600831603139C1BED299C1FE6
:1003E000EF29831203138101831603139C1BF62943
:1003F0009C1FF8298312031301086D3E0318032A7A
:1004000003100000042A03140800EB210318052A36
:10041000EB21031C082A00004F308B008B0B0E2AA7
:10042000112A08003C224422EB21800D900B232A44
:10043000840A0408903E0318202A08309000232ADA
:10044000831603138C1008008316031305309C00D9
:100450008B128112811583171130840005228316B7
:100460000313C63092000B178B178C1483120313DF
:08047000053092003A2A080051
:080478008316031305109B011C
:1004800083120313051408008316031305109B0140
:0804900083120313051008009C
:08049800831603137C308F0072
:0404A000DE21000059
:0C04A4000834003400340034003400340C
:1004B000003400340034003400340034003400349C
:1004C000003400340034003400340034003400348C
:1004D000003400340034003400340034003400347C
:1004E000003400340034003400340034003400346C
:1004F000003400340034003400340034003400345C
:10050000003400340034003400340034003400344B
:10051000003400340034003400340034003400343B
:10052000003400340034003400340034003400342B
:10053000003400340034003400340034003400341B
:10054000003400340034003400340034003400340B
:1005500000340034003400340034003400340034FB
:02056000003465
:02400E00383741
:02401000FC3F73
:00000001FF
