:020000040000FA
:040000008A11D72B5F
:08000800FC000308FD000A08DA
:10001000FE00831603138C1810288B1815281A2835
:10002000831203138C109C231A288B108B177B1CB4
:100030005A2B4A2B7E088A007D088300FC0E7C0E1A
:020040000900B5
:0E00420001340034DF340334103401345F34F1
:0200500000347A
:0E005200F001F101F201F3010800831783129F
:1000600003176F3084007810911B781403107818F0
:100070000314800D78100318781484030408EF3EED
:10008000031836281D301106031D6128553012064D
:10009000031D612859301306031D612855301406CD
:1000A000031D612855301506031D612860301606B2
:1000B000F039031D61281C301D06FC39031D612821
:1000C0006C28F80B31280830F800F90A7908A13EAD
:1000D000031C312803100800031408002920831290
:1000E00003179619742878281619EF2903147B280A
:1000F000161DEF290310F30DF20DF10DF00D9618FA
:10010000822886281618EF2903148928161CEF293F
:100110000310F30DF20DF10DF00D971B90289428AC
:10012000171BEF2903149728171FEF290310F30D4E
:10013000F20DF10DF00D971A9E28A228171AEF293B
:100140000314A528171EEF290310F30DF20DF10D6E
:10015000F00D9719AC28B0281719EF290314B3280C
:10016000171DEF290310F30DF20DF10DF00D971887
:10017000BA28BE281718EF290314C128171CEF2925
:100180000310F30DF20DF10DF00D981BC828CC28CB
:10019000181BEF290314CF28181FEF290310F30DA4
:1001A000F20DF10DF00D981AD628DA28181AEF2959
:1001B0000314DD28181EEF290310F30DF20DF10DC5
:1001C000F00D9819E428E8281819EF290314EB28F2
:1001D000181DEF290310F30DF20DF10DF00D981815
:1001E000F228F6281818EF290314F928181CEF290B
:1001F0000310F30DF20DF10DF00D991B00290429E8
:10020000191BEF2903140729191FEF290310F30DF8
:10021000F20DF10DF00D991A0E291229191AEF2974
:1002200003141529191EEF290310F30DF20DF10D1A
:10023000F00D99191C2920291919EF2903142329D4
:10024000191DEF290310F30DF20DF10DF00D9918A2
:100250002A292E291918EF2903143129191CEF29ED
:100260000310F30DF20DF10DF00D9A1B38293C2906
:100270001A1BEF2903143F291A1FEF290310F30D4E
:10028000F20DF10DF00D9A1A46294A291A1AEF2992
:1002900003144D291A1EEF290310F30DF20DF10D71
:1002A000F00D9A19542958291A19EF2903145B29BA
:1002B0001A1DEF290310F30DF20DF10DF00D9A1830
:1002C000622966291A18EF29031469291A1CEF29D3
:1002D0000310F30DF20DF10DF00D9B1B7029742925
:1002E0001B1BEF29031477291B1FEF290310F30DA4
:1002F000F20DF10DF00D9B1A7E2982291B1AEF29B0
:10030000031485291B1EEF290310F30DF20DF10DC7
:10031000F00D9B198C2990291B19EF29031493299F
:100320001B1DEF290310F30DF20DF10DF00D9B18BD
:100330009A299E291B18EF290314A1291B1CEF29B8
:100340000310F30DF20DF10DF00D9C1BA829AC2943
:100350001C1BEF290314AF291C1FEF290310F30DF9
:10036000F20DF10DF00D9C1AB629BA291C1AEF29CD
:100370000314BD291C1EEF290310F30DF20DF10D1E
:10038000F00D9C19C429C8291C19EF290314CB2985
:100390001C1DEF290310F30DF20DF10DF00D9C184B
:1003A000D229D6291C18EF290314D9291C1CEF299E
:1003B0000310F30DF20DF10DF00DF00CF10CF20C39
:1003C000F30C0318F0147008F9007108F0007208BB
:1003D000F1007308F2007908F30003140800031019
:1003E0000800F901F01BF90A701BF90AF01AF90A62
:1003F000701AF90AF019F90A7019F90AF018F90ACD
:100400007018F90AF11BF90A711BF90AF11AF90AB5
:10041000711AF90A79180F2A7318322A112A731CD3
:10042000322AF901F119F90A7119F90AF118F90AD0
:100430007118F90AF21BF90A721BF90AF21AF90A81
:10044000721AF90AF219F90A7219F90AF218F90A74
:100450007218F90A791C2F2AF318322A342AF31C4D
:10046000322A342A03100800031408002920083017
:10047000F800F901F801F9012E20031C462A6E202C
:10048000031C3C2AF121031C3C2A492A2920031081
:060490000800031408003F
:0A049600831603178C184D2A8316F5
:1004A00003178C130C158B1355308D00AA308D005B
:1004B0008C148B170C11831603178C185D2A0800F7
:1004C000831603178C130C140800831203170130D2
:1004D0008D008C014B22831203170D08FC3C8D0A02
:1004E000031D6A2A8312031700308D0001308C002F
:1004F0004B2208008312031700308D006022831204
:1005000003170C08F80001308C060319BC2A0130CF
:100510008D006022831203170C08831203137006E8
:10052000031DB22A831203178D0A60228312031758
:100530000C088312031371060319A22A83120317EE
:100540008D03B22A831203178D0A602283120317C8
:100550000C088312031372060319BE2A83120317B1
:100560008D038D038312031778080D060319BC2A27
:100570008D0A8D0A8D0A892A031008008312031739
:100580008D038D03031408007A220318F62A8312C0
:10059000031700308D006022831203170C088D00B2
:1005A000831203137008831203178C004B228312EB
:1005B00003137108831203178D0A8C004B228312D8
:1005C00003137208831203178D0A8C004B228312C7
:1005D0000317FC300D06031DF02A01308D00F12AAF
:1005E0008D0A0D088C0000308D004B2208007A2205
:1005F000031C192B83120317FA300D0603190E2B57
:100600008D0A8D0A8D0A6022831203178D038D03D4
:100610008D034B22831203178D0AFA2A83120317C4
:1006200000308D006022831203178C038C038C032F
:040630004B22080051
:0C0634008316031306148513051305102C
:1006400085119B010B168B1708008312031385136A
:10065000051305108511080083120313851705176C
:1006600005108511080008008312031385176B23FA
:1006700085130800080008008312031385159F30B6
:10068000F8001030F900F80B462BF90B432B482BE0
:10069000851108007B102523AD233622031C4A2B2D
:1006A0007A220318542B572B3C2333234A2B342311
:1006B0004A2B08007B142C23AD233622031C5A2B13
:1006C0007A22031C642B672BC4223A235A2BF7226D
:1006D0003B235A2B08005E30F800EB30F900F80B92
:0C06E000722BF90B6F2B742B000008002C
:0406EC00831603135B
:1006F0009C1B782B9C1F7A2B83120313810183167A
:1007000003139C1B812B9C1F832B83120313010853
:100710006D3E03188E2B031000008F2B031408006E
:1007200076230318902B7623031C932B4530F80077
:10073000F80B982B9B2B08007623800D900BAC2B8D
:10074000840A0408903E0318A82B08309000AC2BB4
:10075000831603138C10FB140800FB10831603137D
:1007600005309C008B128112811583171130840093
:10077000902383160313C83092000B178B178C1429
:0E0780008312031305309200FB1CC42B0800EB
:02078E008316D0
:10079000031305109B01831203130514080083162D
:0E07A000031305109B018312031305100800BC
:0207AE008316B0
:0E07B00003137C308F00FB011A234A23D72B42
:0207BE000834FD
:1007C0000034003400340034003400340034003489
:1007D0000034003400340034003400340034003479
:1007E0000034003400340034003400340034003469
:1007F0000034003400340034003400340034003459
:100800000034003400340034003400340034003448
:100810000034003400340034003400340034003438
:100820000034003400340034003400340034003428
:100830000034003400340034003400340034003418
:100840000034003400340034003400340034003408
:1008500000340034003400340034003400340034F8
:1008600000340034003400340034003400340034E8
:0C08700000340034003400340034003444
:02400E00383741
:02401000FC3F73
:024200000100BB
:00000001FF
