:020000040000FA
:040000008A11DA2B5C
:08000800FC000308FD000A08DA
:10001000FE00831603138C1810288B181528192836
:10002000831203138C109F2319288B107B1C562BD3
:10003000442B7E088A007D088300FC0E7C0E09009C
:1000400001340034E2340334103401345F340034BA
:10005000F001F101F201F301080083178312031785
:100060006F3084007810911B7814031078180314F3
:10007000800D78100318781484030408EF3E0318E9
:1000800035281D301106031D602855301206031D4A
:10009000602859301306031D602855301406031DCF
:1000A000602855301506031D602860301606F039AB
:1000B000031D60281C301D06FC39031D60286B28B9
:1000C000F80B30280830F800F90A7908A13E031C23
:1000D0003028031008000314080028208312031797
:1000E0009619732877281619EE2903147A28161DF5
:1000F000EE290310F30DF20DF10DF00D9618812885
:1001000085281618EE2903148828161CEE290310DA
:10011000F30DF20DF10DF00D971B8F289328171B8F
:10012000EE2903149628171FEE290310F30DF20D84
:10013000F10DF00D971A9D28A128171AEE29031426
:10014000A428171EEE290310F30DF20DF10DF00D8A
:100150009719AB28AF281719EE290314B228171DD9
:10016000EE290310F30DF20DF10DF00D9718B928DB
:10017000BD281718EE290314C028171CEE290310F8
:10018000F30DF20DF10DF00D981BC728CB28181BAD
:10019000EE290314CE28181FEE290310F30DF20DDB
:1001A000F10DF00D981AD528D928181AEE29031444
:1001B000DC28181EEE290310F30DF20DF10DF00DE1
:1001C0009819E328E7281819EE290314EA28181DBE
:1001D000EE290310F30DF20DF10DF00D9818F12832
:1001E000F5281818EE290314F828181CEE29031016
:1001F000F30DF20DF10DF00D991BFF280329191BCA
:10020000EE2903140629191FEE290310F30DF20D30
:10021000F10DF00D991A0D291129191AEE2903145F
:100220001429191EEE290310F30DF20DF10DF00D36
:1002300099191B291F291919EE2903142229191D9F
:10024000EE290310F30DF20DF10DF00D9918292987
:100250002D291918EE2903143029191CEE29031031
:10026000F30DF20DF10DF00D9A1B37293B291A1BE6
:10027000EE2903143E291A1FEE290310F30DF20D87
:10028000F10DF00D9A1A452949291A1AEE2903147D
:100290004C291A1EEE290310F30DF20DF10DF00D8D
:1002A0009A19532957291A19EE2903145A291A1D84
:1002B000EE290310F30DF20DF10DF00D9A186129DE
:1002C00065291A18EE29031468291A1CEE2903104F
:1002D000F30DF20DF10DF00D9B1B6F2973291B1B04
:1002E000EE29031476291B1FEE290310F30DF20DDE
:1002F000F10DF00D9B1A7D2981291B1AEE2903149B
:1003000084291B1EEE290310F30DF20DF10DF00DE3
:100310009B198B298F291B19EE29031492291B1D68
:10032000EE290310F30DF20DF10DF00D9B18992934
:100330009D291B18EE290314A0291B1CEE2903106C
:10034000F30DF20DF10DF00D9C1BA729AB291C1B21
:10035000EE290314AE291C1FEE290310F30DF20D34
:10036000F10DF00D9C1AB529B9291C1AEE290314B8
:10037000BC291C1EEE290310F30DF20DF10DF00D3A
:100380009C19C329C7291C19EE290314CA291C1D4D
:10039000EE290310F30DF20DF10DF00D9C18D1298B
:1003A000D5291C18EE290314D8291C1CEE2903108A
:1003B000F30DF20DF10DF00DF00CF10CF20CF30C4D
:1003C0000318F0147008F9007108F0007208F100C9
:1003D0007308F2007908F300031408000310080002
:1003E000F901F01BF90A701BF90AF01AF90A701AE0
:1003F000F90AF019F90A7019F90AF018F90A7018CF
:10040000F90AF11BF90A711BF90AF11AF90A711AB2
:10041000F90A79180E2A7318312A102A731C312A06
:10042000F901F119F90A7119F90AF118F90A7118A3
:10043000F90AF21BF90A721BF90AF21AF90A721A7E
:10044000F90AF219F90A7219F90AF218F90A721876
:10045000F90A791C2E2AF318312A332AF31C312A7F
:10046000332A031008000314080028200830F8007D
:10047000F901F801F9012D20031C452A6D20031C08
:100480003B2AF021031C3B2A482A2820031008009D
:040490000314080049
:0C049400831603178C184C2A83160317DC
:1004A0008C130C158B1355308D00AA308D008C14D5
:1004B0008B170C11831603178C185C2A08008316FF
:1004C00003178C130C1408008312031701308D00DE
:1004D0008C014A22831203170D08FC3C8D0A031D70
:1004E000692A8312031700308D0001308C004A22E4
:1004F00008008312031700308D005F228312031758
:100500000C08F80001308C060319BB2A01308D005D
:100510005F22831203170C08831203137006031D56
:10052000B12A831203178D0A5F22831203170C0866
:100530008312031371060319A12A831203178D0373
:10054000B12A831203178D0A5F22831203170C0846
:100550008312031372060319BD2A831203178D0336
:100560008D038312031778080D060319BB2A8D0A21
:100570008D0A8D0A882A03100800831203178D0341
:100580008D030314080079220318F52A8312031738
:1005900000308D005F22831203170C088D00831238
:1005A00003137008831203178C004A22831203136B
:1005B0007108831203178D0A8C004A2283120313D9
:1005C0007208831203178D0A8C004A2283120317C4
:1005D000FC300D06031DEF2A01308D00F02A8D0A34
:1005E0000D088C0000308D004A2208007922031C7F
:1005F000182B83120317FA300D0603190D2B8D0AE1
:100600008D0A8D0A5F22831203178D038D038D03DC
:100610004A22831203178D0AF92A83120317003026
:100620008D005F22831203178C038C038C034A22F4
:020630000800C0
:0E063200831603130614851305130510851196
:100640009B010B168B1708008312031385130513E8
:10065000051085110800831203138517051705106F
:100660008511080008000800080008008312031321
:1006700085159F30F8001030F900F80B402BF90B6E
:100680003D2B422B851108007B102423B0233522FB
:10069000031C442B792203184E2B522B3623322372
:1006A0006923442B33236923442B08007B142B2319
:1006B000B0233522031C562B7922031C602B642B9C
:1006C000C32234236923562BF62235236923562B64
:1006D00008003530F8001530F9000E30FA00F80B3C
:1006E000722BF90B742BFA0B6F2B762B772B0800E0
:1006F000831603139C1B7A2B9C1F7C2B83120313E2
:100700008101831603139C1B832B9C1F852B831253
:10071000031301086D3E0318902B03100000912B6A
:100720000314080078230318922B7823031C952BBD
:1007300000004F30F800F80B9B2B9E2B080078230D
:10074000800D900BAF2B840A0408903E0318AB2B4E
:1007500008309000AF2B831603138C10FB14080095
:10076000FB108316031305309C008B128112811538
:10077000831711308400922383160313C63092002E
:100780000B178B178C148312031305309200FB1C7C
:04079000C72B08006B
:0C0794008316031305109B01831203134E
:1007A000051408008316031305109B01831203131D
:0407B0000510080028
:0C07B400831603137C308F00FB01192317
:0407C0004423DA2BC9
:0C07C400083400340034003400340034E9
:1007D0000034003400340034003400340034003479
:1007E0000034003400340034003400340034003469
:1007F0000034003400340034003400340034003459
:100800000034003400340034003400340034003448
:100810000034003400340034003400340034003438
:100820000034003400340034003400340034003428
:100830000034003400340034003400340034003418
:100840000034003400340034003400340034003408
:1008500000340034003400340034003400340034F8
:1008600000340034003400340034003400340034E8
:1008700000340034003400340034003400340034D8
:02088000003442
:02400E00383741
:02401000FC3F73
:024200000100BB
:00000001FF
