:020000040000FA
:040000008A11A32A94
:08000800F8000308F9000A08E2
:10001000FA008C180C280E2869228C107A088A00A5
:0A00200079088300F80E780E09003D
:06002A0001340034A9348A
:0A0030000234103401345F34003450
:06003A00F301F401F501E1
:10004000F601F701F801F90108008317831203177D
:100050006F3084007210911B721403107218031415
:10006000800D72100318721484030408EF3E031805
:100070002D281D301106031D582855301206031D6A
:10008000582859301306031D582855301406031DEF
:10009000582855301506031D582860301606F039CB
:1000A000031D58281C301D06FC39031D58286328E1
:1000B000F00B28280830F000F10A7108A13E031C5B
:1000C000282803100800031408001D2083120317BA
:1000D00096196B286F281619E62903147228161D25
:1000E000E6290310F60DF50DF40DF30D9618792899
:1000F0007D281618E62903148028161CE62903100B
:10010000F60DF50DF40DF30D971B87288B28171BA3
:10011000E62903148E28171FE6290310F60DF50DA6
:10012000F40DF30D971A95289928171AE629031448
:100130009C28171EE6290310F60DF50DF40DF30D9E
:100140009719A328A7281719E6290314AA28171D09
:10015000E6290310F60DF50DF40DF30D9718B128EF
:10016000B5281718E6290314B828171CE629031028
:10017000F60DF50DF40DF30D981BBF28C328181BC1
:10018000E6290314C628181FE6290310F60DF50DFD
:10019000F40DF30D981ACD28D128181AE629031466
:1001A000D428181EE6290310F60DF50DF40DF30DF5
:1001B0009819DB28DF281819E6290314E228181DEE
:1001C000E6290310F60DF50DF40DF30D9818E92846
:1001D000ED281818E6290314F028181CE629031046
:1001E000F60DF50DF40DF30D991BF728FB28191BDF
:1001F000E6290314FE28191FE6290310F60DF50D54
:10020000F40DF30D991A05290929191AE629031481
:100210000C29191EE6290310F60DF50DF40DF30D4A
:100220009919132917291919E62903141A29191DCF
:10023000E6290310F60DF50DF40DF30D991821299B
:1002400025291918E62903142829191CE629031061
:10025000F60DF50DF40DF30D9A1B2F2933291A1BFA
:10026000E629031436291A1FE6290310F60DF50DA9
:10027000F40DF30D9A1A3D2941291A1AE62903149F
:1002800044291A1EE6290310F60DF50DF40DF30DA1
:100290009A194B294F291A19E629031452291A1DB4
:1002A000E6290310F60DF50DF40DF30D9A185929F2
:1002B0005D291A18E629031460291A1CE62903107F
:1002C000F60DF50DF40DF30D9B1B67296B291B1B18
:1002D000E62903146E291B1FE6290310F60DF50D00
:1002E000F40DF30D9B1A752979291B1AE6290314BD
:1002F0007C291B1EE6290310F60DF50DF40DF30DF8
:100300009B19832987291B19E62903148A291B1D98
:10031000E6290310F60DF50DF40DF30D9B18912948
:1003200095291B18E629031498291B1CE62903109C
:10033000F60DF50DF40DF30D9C1B9F29A3291C1B35
:10034000E6290314A6291C1FE6290310F60DF50D56
:10035000F40DF30D9C1AAD29B1291C1AE6290314DA
:10036000B4291C1EE6290310F60DF50DF40DF30D4E
:100370009C19BB29BF291C19E6290314C2291C1D7D
:10038000E6290310F60DF50DF40DF30D9C18C9299F
:10039000CD291C18E6290314D0291C1CE6290310BA
:1003A000F60DF50DF40DF30DF30CF40CF50CF60C45
:1003B0000318F3147308F7007408F3007508F400C9
:1003C0007608F5007708F60003140800031008000B
:1003D000F701F31BF70A731BF70AF31AF70A731AEC
:1003E000F70AF319F70A7319F70AF318F70A7318DB
:1003F000F70AF41BF70A741BF70AF41AF70A741ABF
:10040000F70A7718062A7618292A082A761C292A34
:10041000F701F419F70A7419F70AF418F70A7418AF
:10042000F70AF51BF70A751BF70AF51AF70A751A8A
:10043000F70AF519F70A7519F70AF518F70A751882
:10044000F70A771C262AF618292A2B2AF61C292AAD
:100450002B2A03100800031408001D200830F000A8
:10046000F101F201F7012520031C3D2A6520031C40
:10047000332AE821031C332A402A1D2003100800D8
:040480000314080059
:0C048400831603139C1B442A9C1F462A6D
:10049000831203138101831603139C1B4D2A9C1F97
:1004A0004F2A8312031301086D3E03185A2A0310C2
:1004B00000005B2A03140800422203185C2A42222F
:1004C000031C5F2A00004F30E200E20B652A682A15
:1004D000080093229B224222800D900B7A2A840AE4
:1004E0000408903E0318772A083090007A2A831671
:1004F00003138C1008008316031305309C008B1225
:10050000811281158317113084005C228316031336
:10051000C63092000B178B178C148312031305300F
:060520009200912A080080
:0A0526008316031305109B018312D6
:100530000313051408008316031305109B0183128F
:0605400003130510080082
:0A054600831603137C308F002D2272
:020550000000A9
:0E055200083400340034003400340034003427
:1005600000340034003400340034003400340034EB
:1005700000340034003400340034003400340034DB
:1005800000340034003400340034003400340034CB
:1005900000340034003400340034003400340034BB
:1005A00000340034003400340034003400340034AB
:1005B000003400340034003400340034003400349B
:1005C000003400340034003400340034003400348B
:1005D000003400340034003400340034003400347B
:1005E000003400340034003400340034003400346B
:1005F000003400340034003400340034003400345B
:10060000003400340034003400340034003400344A
:02400E00383741
:02401000FC3F73
:00000001FF
