:020000040000FA
:040000008A11112C24
:08000800FC000308FD000A08DA
:10001000FE00831603138C1810288B18152821282E
:10002000831203138C10D2232128831603138C1000
:100030008312031391018C108B108B177B1C7E2B6A
:100040006C2B7E088A007D088300FC0E7C0E090064
:100050000134003419340434103401345F34003472
:10006000F001F101F201F301080083178312031775
:100070006F3084007810911B7814031078180314E3
:10008000800D78100318781484030408EF3E0318D9
:100090003D281D301106031D682855301206031D2A
:1000A000682859301306031D682855301406031DAF
:1000B000682855301506031D682860301606F0398B
:1000C000031D68281C301D06FC39031D6828732891
:1000D000F80B38280830F800F90A7908A13E031C0B
:1000E0003828031008000314080030208312031777
:1000F00096197B287F281619F62903148228161DC5
:10010000F6290310F30DF20DF10DF00D9618892864
:100110008D281618F62903149028161CF6290310AA
:10012000F30DF20DF10DF00D971B97289B28171B6F
:10013000F62903149E28171FF6290310F30DF20D5C
:10014000F10DF00D971AA528A928171AF6290314FE
:10015000AC28171EF6290310F30DF20DF10DF00D6A
:100160009719B328B7281719F6290314BA28171DA9
:10017000F6290310F30DF20DF10DF00D9718C128BB
:10018000C5281718F6290314C828171CF6290310C8
:10019000F30DF20DF10DF00D981BCF28D328181B8D
:1001A000F6290314D628181FF6290310F30DF20DB3
:1001B000F10DF00D981ADD28E128181AF62903141C
:1001C000E428181EF6290310F30DF20DF10DF00DC1
:1001D0009819EB28EF281819F6290314F228181D8E
:1001E000F6290310F30DF20DF10DF00D9818F92812
:1001F000FD281818F62903140029181CF6290310E5
:10020000F30DF20DF10DF00D991B07290B29191BA8
:10021000F62903140E29191FF6290310F30DF20D08
:10022000F10DF00D991A15291929191AF629031437
:100230001C29191EF6290310F30DF20DF10DF00D16
:100240009919232927291919F62903142A29191D6F
:10025000F6290310F30DF20DF10DF00D9918312967
:1002600035291918F62903143829191CF629031001
:10027000F30DF20DF10DF00D9A1B3F2943291A1BC6
:10028000F629031446291A1FF6290310F30DF20D5F
:10029000F10DF00D9A1A4D2951291A1AF629031455
:1002A00054291A1EF6290310F30DF20DF10DF00D6D
:1002B0009A195B295F291A19F629031462291A1D54
:1002C000F6290310F30DF20DF10DF00D9A186929BE
:1002D0006D291A18F629031470291A1CF62903101F
:1002E000F30DF20DF10DF00D9B1B77297B291B1BE4
:1002F000F62903147E291B1FF6290310F30DF20DB6
:10030000F10DF00D9B1A852989291B1AF629031472
:100310008C291B1EF6290310F30DF20DF10DF00DC3
:100320009B19932997291B19F62903149A291B1D38
:10033000F6290310F30DF20DF10DF00D9B18A12914
:10034000A5291B18F6290314A8291B1CF62903103C
:10035000F30DF20DF10DF00D9C1BAF29B3291C1B01
:10036000F6290314B6291C1FF6290310F30DF20D0C
:10037000F10DF00D9C1ABD29C1291C1AF629031490
:10038000C4291C1EF6290310F30DF20DF10DF00D1A
:100390009C19CB29CF291C19F6290314D2291C1D1D
:1003A000F6290310F30DF20DF10DF00D9C18D9296B
:1003B000DD291C18F6290314E0291C1CF62903105A
:1003C000F30DF20DF10DF00DF00CF10CF20CF30C3D
:1003D0000318F0147008F9007108F0007208F100B9
:1003E0007308F2007908F3000314080003100800F2
:1003F000F901F01BF90A701BF90AF01AF90A701AD0
:10040000F90AF019F90A7019F90AF018F90A7018BE
:10041000F90AF11BF90A711BF90AF11AF90A711AA2
:10042000F90A7918162A7318392A182A731C392AD6
:10043000F901F119F90A7119F90AF118F90A711893
:10044000F90AF21BF90A721BF90AF21AF90A721A6E
:10045000F90AF219F90A7219F90AF218F90A721866
:10046000F90A791C362AF318392A3B2AF31C392A4F
:100470003B2A031008000314080030200830F8005D
:10048000F901F801F9013520031C4D2A7520031CE0
:10049000432AF821031C432A502A30200310080065
:0404A0000314080039
:0C04A400831603178C18542A83160317C4
:1004B0008C130C158B1355308D00AA308D008C14C5
:1004C0008B170C11831603178C18642A08008316E7
:1004D00003178C130C1408008312031701308D00CE
:1004E0008C015222831203170D08FC3C8D0A031D58
:1004F000712A8312031700308D0001308C005222C4
:1005000008008312031700308D006722831203173F
:100510000C08F80001308C060319C32A01308D0045
:100520006722831203170C08831203137006031D3E
:10053000B92A831203178D0A6722831203170C0846
:100540008312031371060319A92A831203178D035B
:10055000B92A831203178D0A6722831203170C0826
:100560008312031372060319C52A831203178D031E
:100570008D038312031778080D060319C32A8D0A09
:100580008D0A8D0A902A03100800831203178D0329
:100590008D030314080081220318FD2A8312031718
:1005A00000308D006722831203170C088D00831220
:1005B00003137008831203178C0052228312031353
:1005C0007108831203178D0A8C00522283120313C1
:1005D0007208831203178D0A8C00522283120317AC
:1005E000FC300D06031DF72A01308D00F82A8D0A14
:1005F0000D088C0000308D00522208008122031C5F
:10060000202B83120317FA300D060319152B8D0AC0
:100610008D0A8D0A6722831203178D038D038D03C4
:100620005222831203178D0A012B83120317003005
:100630008D006722831203178C038C038C035222D4
:020640000800B0
:0E064200831603130614851305130510851186
:100650009B010B168B1708008312031385130513D8
:10066000051085110800831203138517051705105F
:1006700085110800831203130517A1230513080031
:10068000831203138517A123851308008312031314
:10069000851305130517A1230513A1230517A1230E
:1006A0000513080083120313851305138517A1236F
:1006B0008513A1238517A123851308008312031333
:1006C00085159F30F8001030F900F80B682BF90BF6
:1006D000652B6A2B851108007B102C23E3233D2218
:1006E000031C6C2B81220318762B7A2B5E233A2372
:1006F00091236C2B402391236C2B08007B14332314
:10070000E3233D22031C7E2B8122031C882B8C2B90
:10071000CB22462391237E2BFE22522391237E2B34
:1007200008000730F8002F30F9000330FA00F80B0A
:100730009A2BF90B9C2BFA0B972B9E2B9F2BA02B04
:1007400008005E30F800EB30F900F80BA82BF90B2D
:08075000A52BAA2B00000800F4
:08075800831603139C1BAE2B5A
:100760009C1FB02B831203138101831603139C1B60
:10077000B72B9C1FB92B8312031301086D3E03187E
:10078000C42B03100000C52B03140800AC2303186E
:10079000C62BAC23031CC92B4530F800F80BCE2B1D
:1007A000D12B0800AC23800D900BE22B840A0408A7
:1007B000903E0318DE2B08309000E22B83160313C3
:1007C0008C10FB140800FB108316031305309C00EB
:1007D0008B12811281158312031312119101831759
:1007E00011308400C62383160313C83092000B1700
:1007F0008B178C148312031305309200FB1CFE2B05
:020800000800EE
:0E0802008316031305109B01831203130514C4
:1008100008008316031305109B01831203130510B0
:020820000800CE
:0E082200831603137C308F00FB0121236C230F
:02083000112C89
:0E083200083400340034003400340034003444
:100840000034003400340034003400340034003408
:1008500000340034003400340034003400340034F8
:1008600000340034003400340034003400340034E8
:1008700000340034003400340034003400340034D8
:1008800000340034003400340034003400340034C8
:1008900000340034003400340034003400340034B8
:1008A00000340034003400340034003400340034A8
:1008B0000034003400340034003400340034003498
:1008C0000034003400340034003400340034003488
:1008D0000034003400340034003400340034003478
:1008E0000034003400340034003400340034003468
:02400E00383741
:02401000FC3F73
:024200000100BB
:00000001FF
