:020000040000FA
:040000008A11B32B83
:080008000308FB000A08FC00DC
:10001000831603138C180F288B18122816288C109F
:100020003E2316288B107A1CA22B922B7C088A0068
:060030007B0883000900BB
:0A00360001340034B93403341034EF
:0600400001345F340034BE
:0A004600F301F401F501F601F701E2
:10005000F801F90108008317831203176F30840039
:100060007210911B7214031072180314800D721019
:100070000318721484030408EF3E031833281D305C
:100080001106031D5E2855301206031D5E285930E7
:100090001306031D5E2855301406031D5E285530D7
:1000A0001506031D5E2860301606F039031D5E2814
:1000B0001C301D06FC39031D5E286928F00B2E2814
:1000C0000830F000F10A7108A13E031C2E2803102D
:1000D00008000314080023208312031796197128BF
:1000E00075281619EC2903147828161DEC2903101D
:1000F000F60DF50DF40DF30D96187F2883281618CC
:10010000EC2903148628161CEC290310F60DF50DB6
:10011000F40DF30D971B8D289128171BEC29031460
:100120009428171FEC290310F60DF50DF40DF30DAF
:10013000971A9B289F28171AEC290314A228171E28
:10014000EC290310F60DF50DF40DF30D9719A92800
:10015000AD281719EC290314B028171DEC2903103A
:10016000F60DF50DF40DF30D9718B728BB281718E9
:10017000EC290314BE28171CEC290310F60DF50D0D
:10018000F40DF30D981BC528C928181BEC2903147E
:10019000CC28181FEC290310F60DF50DF40DF30D06
:1001A000981AD328D728181AEC290314DA28181E0D
:1001B000EC290310F60DF50DF40DF30D9819E12857
:1001C000E5281819EC290314E828181DEC29031058
:1001D000F60DF50DF40DF30D9818EF28F328181807
:1001E000EC290314F628181CEC290310F60DF50D64
:1001F000F40DF30D991BFD280129191BEC2903149B
:100200000429191FEC290310F60DF50DF40DF30D5B
:10021000991A0B290F29191AEC2903141229191EEE
:10022000EC290310F60DF50DF40DF30D99191929AC
:100230001D291919EC2903142029191DEC29031073
:10024000F60DF50DF40DF30D991827292B29191822
:10025000EC2903142E29191CEC290310F60DF50DB9
:10026000F40DF30D9A1B352939291A1BEC290314B7
:100270003C291A1FEC290310F60DF50DF40DF30DB2
:100280009A1A432947291A1AEC2903144A291A1ED3
:10029000EC290310F60DF50DF40DF30D9A19512903
:1002A00055291A19EC29031458291A1DEC29031091
:1002B000F60DF50DF40DF30D9A185F2963291A1840
:1002C000EC29031466291A1CEC290310F60DF50D10
:1002D000F40DF30D9B1B6D2971291B1BEC290314D5
:1002E00074291B1FEC290310F60DF50DF40DF30D09
:1002F0009B1A7B297F291B1AEC29031482291B1EB8
:10030000EC290310F60DF50DF40DF30D9B19892959
:100310008D291B19EC29031490291B1DEC290310AE
:10032000F60DF50DF40DF30D9B1897299B291B185D
:10033000EC2903149E291B1CEC290310F60DF50D66
:10034000F40DF30D9C1BA529A9291C1BEC290314F2
:10035000AC291C1FEC290310F60DF50DF40DF30D5F
:100360009C1AB329B7291C1AEC290314BA291C1E9C
:10037000EC290310F60DF50DF40DF30D9C19C129B0
:10038000C5291C19EC290314C8291C1DEC290310CC
:10039000F60DF50DF40DF30D9C18CF29D3291C187B
:1003A000EC290314D6291C1CEC290310F60DF50DBD
:1003B000F40DF30DF30CF40CF50CF60C0318F31418
:1003C0007308F7007408F3007508F4007608F50068
:1003D0007708F6000314080003100800F701F31B68
:1003E000F70A731BF70AF31AF70A731AF70AF319D5
:1003F000F70A7319F70AF318F70A7318F70AF41BC8
:10040000F70A741BF70AF41AF70A741AF70A77182E
:100410000C2A76182F2A0E2A761C2F2AF701F41997
:10042000F70A7419F70AF418F70A7418F70AF51B93
:10043000F70A751BF70AF51AF70A751AF70AF5197C
:10044000F70A7519F70AF518F70A7518F70A771CED
:100450002C2AF6182F2A312AF61C2F2A312A0310AB
:1004600008000314080023200830F000F101F20115
:10047000F7012B20031C432A6B20031C392AEE2191
:10048000031C392A462A23200310080003140800FD
:10049000831603178C184A2A831603178C130C151E
:1004A0008B1355308D00AA308D008C148B170C11D6
:1004B000831603178C185A2A0800831603178C1307
:1004C0000C1408008312031701308D008C014822A0
:1004D000831203170D08FC3C8D0A031D672A831243
:1004E000031700308D0001308C0048220800831271
:1004F000031700308D005D22831203170C08F700EC
:1005000001308C060319B92A01308D005D22831257
:1005100003170C08831203137306031DAF2A8312FB
:1005200003178D0A5D22831203170C08831203132D
:10053000740603199F2A831203178D03AF2A8312AF
:1005400003178D0A5D22831203170C08831203130D
:1005500075060319BB2A831203178D038D038312BB
:10056000031777080D060319B92A8D0A8D0A8D0A1B
:10057000862A03100800831203178D038D030314CA
:10058000080077220318F32A8312031700308D0026
:100590005D22831203170C088D0083120313730866
:1005A000831203178C0048228312031374088312EA
:1005B00003178D0A8C0048228312031375088312D7
:1005C00003178D0A8C00482283120317FC300D0696
:1005D000031DED2A01308D00EE2A8D0A0D088C00D6
:1005E00000308D00482208007722031C162B83124E
:1005F0000317FA300D0603190B2B8D0A8D0A8D0A8D
:100600005D22831203178D038D038D03482283120D
:1006100003178D0AF72A8312031700308D005D221D
:0E062000831203178C038C038C0348220800FE
:02062E00831631
:1006300003139C1B192B9C1F1B2B8312031381017B
:10064000831603139C1B222B9C1F242B8312031342
:1006500001086D3E03182F2B03100000302B0314EC
:10066000080017230318312B1723031C342B000019
:100670004F30B700B70B3A2B3D2B08001723800DE6
:10068000900B4D2B840A0408903E03184A2B083027
:1006900090004D2B831603138C1008008316031350
:1006A00005309C008B128112811583171130840054
:1006B000312383160313C63092000B178B178C144B
:0C06C0008312031305309200642B080025
:0406CC00080008001A
:1006D000080008008312031385159F30F8001030BE
:1006E000F900F80B742BF90B712B762B8511080090
:1006F00083160313061485130513051085119B013A
:100700007A18892B8312031385130513051085119D
:100710008F2B8312031385170517051085110B16F0
:100720008B1708007A1078234E233322031C942B56
:10073000772203189C2B9F2B6A236623942B672315
:10074000942B08007A1478234E233322031CA42B05
:1007500077220318AC2BAF2BC1226823A42BF422E1
:060760006923AF2B080025
:0A076600831603137C308F009223EA
:02077000B72BA5
:0E077200083400340034003400340034003405
:1007800000340034003400340034003400340034C9
:1007900000340034003400340034003400340034B9
:1007A00000340034003400340034003400340034A9
:1007B0000034003400340034003400340034003499
:1007C0000034003400340034003400340034003489
:1007D0000034003400340034003400340034003479
:1007E0000034003400340034003400340034003469
:1007F0000034003400340034003400340034003459
:100800000034003400340034003400340034003448
:100810000034003400340034003400340034003438
:100820000034003400340034003400340034003428
:02400E00383741
:02401000FC3F73
:024200000100BB
:00000001FF
